{
  "transactions": [
    {
      "hash": "0x9eb354112e871ab6889093be010bce7f8383bda28e3703342c318130e13d2882",
      "transactionType": "CALL",
      "contractName": null,
      "contractAddress": "0xc8a1b5d80417f4b5d9c4c2409379e44af68e4236",
      "function": "approve(address,uint256)",
      "arguments": [
        "0x45F537Ad768970269fa556dbDAD432a6Fee6c96C",
        "1000000000000000000000000"
      ],
      "transaction": {
        "from": "0xa86ea1be0a43ea977dd7489c7c91247b1a7bc50b",
        "to": "0xc8a1b5d80417f4b5d9c4c2409379e44af68e4236",
        "gas": "0xf9c8",
        "value": "0x0",
        "input": "0x095ea7b300000000000000000000000045f537ad768970269fa556dbdad432a6fee6c96c00000000000000000000000000000000000000000000d3c21bcecceda1000000",
        "nonce": "0x4d",
        "chainId": "0xaa36a7",
        "accessList": null,
        "type": null
      },
      "additionalContracts": [],
      "isFixedGasLimit": false
    },
    {
      "hash": "0x3fd55328b39aad0bbc35f84f5728b0e52bc511a801f01205e53bc0d52dd90227",
      "transactionType": "CALL",
      "contractName": null,
      "contractAddress": "0xc8a1b5d80417f4b5d9c4c2409379e44af68e4236",
      "function": "transferFrom(address,address,uint256)",
      "arguments": [
        "0xA86Ea1be0A43Ea977dd7489c7c91247B1a7bC50b",
        "0x45F537Ad768970269fa556dbDAD432a6Fee6c96C",
        "1000000000000000000000000"
      ],
      "transaction": {
        "from": "0x45f537ad768970269fa556dbdad432a6fee6c96c",
        "to": "0xc8a1b5d80417f4b5d9c4c2409379e44af68e4236",
        "gas": "0x11c61",
        "value": "0x0",
        "input": "0x23b872dd000000000000000000000000a86ea1be0a43ea977dd7489c7c91247b1a7bc50b00000000000000000000000045f537ad768970269fa556dbdad432a6fee6c96c00000000000000000000000000000000000000000000d3c21bcecceda1000000",
        "nonce": "0x0",
        "chainId": "0xaa36a7",
        "accessList": null,
        "type": null
      },
      "additionalContracts": [],
      "isFixedGasLimit": false
    }
  ],
  "receipts": [
    {
      "status": "0x1",
      "cumulativeGasUsed": "0x9ff4a6",
      "logs": [
        {
          "address": "0xc8a1b5d80417f4b5d9c4c2409379e44af68e4236",
          "topics": [
            "0x8c5be1e5ebec7d5bd14f71427d1e84f3dd0314c0f7b2291e5b200ac8c7c3b925",
            "0x000000000000000000000000a86ea1be0a43ea977dd7489c7c91247b1a7bc50b",
            "0x00000000000000000000000045f537ad768970269fa556dbdad432a6fee6c96c"
          ],
          "data": "0x00000000000000000000000000000000000000000000d3c21bcecceda1000000",
          "blockHash": "0x237e4742e0e4da504117f02527657639c3fc422547f1141ef0da411a02c18ace",
          "blockNumber": "0x59545d",
          "transactionHash": "0x9eb354112e871ab6889093be010bce7f8383bda28e3703342c318130e13d2882",
          "transactionIndex": "0x37",
          "logIndex": "0xa5",
          "removed": false
        }
      ],
      "logsBloom": "0x00000000000000002000000000000000000000000000000000000080000000000001000000000000000000000000000000000100000000000000000000200004000000000000000000000000000000000000000000000000000000000000000000000000000000000000000000000000000000000100000000000000000000000000000000000100000000000000000000000000000000000000000000000000020000000000000000400000000000000000000000000000000000000000000000000040000000000000000000000000000000000000000000000000000000000010000000000000000000000000000000000000000000000000000000000000",
      "type": "0x2",
      "transactionHash": "0x9eb354112e871ab6889093be010bce7f8383bda28e3703342c318130e13d2882",
      "transactionIndex": "0x37",
      "blockHash": "0x237e4742e0e4da504117f02527657639c3fc422547f1141ef0da411a02c18ace",
      "blockNumber": "0x59545d",
      "gasUsed": "0xb4d7",
      "effectiveGasPrice": "0x2d8799fdd",
      "from": "0xa86ea1be0a43ea977dd7489c7c91247b1a7bc50b",
      "to": "0xc8a1b5d80417f4b5d9c4c2409379e44af68e4236",
      "contractAddress": null
    },
    {
      "status": "0x1",
      "cumulativeGasUsed": "0x9c7158",
      "logs": [
        {
          "address": "0xc8a1b5d80417f4b5d9c4c2409379e44af68e4236",
          "topics": [
            "0x8c5be1e5ebec7d5bd14f71427d1e84f3dd0314c0f7b2291e5b200ac8c7c3b925",
            "0x000000000000000000000000a86ea1be0a43ea977dd7489c7c91247b1a7bc50b",
            "0x00000000000000000000000045f537ad768970269fa556dbdad432a6fee6c96c"
          ],
          "data": "0x0000000000000000000000000000000000000000000000000000000000000000",
          "blockHash": "0xdc8c9bf8a4883f45861356136e024fb80117549c7b3cbcc6defa8f016b5887a4",
          "blockNumber": "0x59545e",
          "transactionHash": "0x3fd55328b39aad0bbc35f84f5728b0e52bc511a801f01205e53bc0d52dd90227",
          "transactionIndex": "0x51",
          "logIndex": "0xd2",
          "removed": false
        },
        {
          "address": "0xc8a1b5d80417f4b5d9c4c2409379e44af68e4236",
          "topics": [
            "0xddf252ad1be2c89b69c2b068fc378daa952ba7f163c4a11628f55a4df523b3ef",
            "0x000000000000000000000000a86ea1be0a43ea977dd7489c7c91247b1a7bc50b",
            "0x00000000000000000000000045f537ad768970269fa556dbdad432a6fee6c96c"
          ],
          "data": "0x00000000000000000000000000000000000000000000d3c21bcecceda1000000",
          "blockHash": "0xdc8c9bf8a4883f45861356136e024fb80117549c7b3cbcc6defa8f016b5887a4",
          "blockNumber": "0x59545e",
          "transactionHash": "0x3fd55328b39aad0bbc35f84f5728b0e52bc511a801f01205e53bc0d52dd90227",
          "transactionIndex": "0x51",
          "logIndex": "0xd3",
          "removed": false
        }
      ],
      "logsBloom": "0x00000000000000002000000000000000000000000000000000000080000000000001000000000000000000000000000000000100000000000000000000200004000000000000000000000008000000000000000000000000000000000000000000000000000000000000000000000000000000000100000000000010000000000000000000000100000000000000000000000000000000000000000000000000020000000000000000400000000000000000000000000000000000000000000000000042000000000000000000000000000000000000000000000000000000000010000000000000000000000000000000000000000000000000000000000000",
      "type": "0x2",
      "transactionHash": "0x3fd55328b39aad0bbc35f84f5728b0e52bc511a801f01205e53bc0d52dd90227",
      "transactionIndex": "0x51",
      "blockHash": "0xdc8c9bf8a4883f45861356136e024fb80117549c7b3cbcc6defa8f016b5887a4",
      "blockNumber": "0x59545e",
      "gasUsed": "0xc273",
      "effectiveGasPrice": "0x2d474faa9",
      "from": "0x45f537ad768970269fa556dbdad432a6fee6c96c",
      "to": "0xc8a1b5d80417f4b5d9c4c2409379e44af68e4236",
      "contractAddress": null
    }
  ],
  "libraries": [],
  "pending": [],
  "returns": {},
  "timestamp": 1715074069,
  "chain": 11155111,
  "commit": "c11ede8"
}